{
  "address": "0x92456AAFf0642dA774076435E9cDeB50363F9d46",
  "abi": [
    {
      "inputs": [],
      "name": "returnFalse",
      "outputs": [
        {
          "internalType": "bool",
          "name": "",
          "type": "bool"
        }
      ],
      "stateMutability": "pure",
      "type": "function"
    },
    {
      "inputs": [],
      "name": "returnTrue",
      "outputs": [
        {
          "internalType": "bool",
          "name": "",
          "type": "bool"
        }
      ],
      "stateMutability": "pure",
      "type": "function"
    }
  ],
  "args": [],
  "numDeployments": 1,
  "solcInputHash": "7b1c1ef0ce58f109ccf36c1f026d09c6",
  "bytecode": "0x6080604052348015600f57600080fd5b50608a8061001e6000396000f3fe6080604052348015600f57600080fd5b506004361060325760003560e01c806329c14766146037578063f613a68714604e575b600080fd5b60005b604051901515815260200160405180910390f35b6001603a56fea26469706673582212201116e555de6b2b9a0c099ecc7b57cdb3e40ef04f1f2b95fd3d9abf027f47f26064736f6c63430008110033",
  "devdoc": {
    "kind": "dev",
    "methods": {},
    "version": 1
  },
  "userdoc": {
    "kind": "user",
    "methods": {},
    "version": 1
  },
  "storageLayout": {
    "storage": [],
    "types": null
  }
}