{
  "address": "0x271AFDE2ac4aD911AF3Da3B4a901e495Fc88132B",
  "abi": [
    {
      "inputs": [],
      "name": "returnFalse",
      "outputs": [
        {
          "internalType": "bool",
          "name": "",
          "type": "bool"
        }
      ],
      "stateMutability": "pure",
      "type": "function"
    },
    {
      "inputs": [],
      "name": "returnTrue",
      "outputs": [
        {
          "internalType": "bool",
          "name": "",
          "type": "bool"
        }
      ],
      "stateMutability": "pure",
      "type": "function"
    }
  ],
  "transactionHash": "0xb5fd68ec4e8bf75ff918e8490572f272261fbeb9c087eaaf2b681824c67d2e4c",
  "args": [],
  "numDeployments": 1,
  "solcInputHash": "5af6cb726684001a97f743d16d864f1e",
  "bytecode": "0x6080604052348015600f57600080fd5b50608a8061001e6000396000f3fe6080604052348015600f57600080fd5b506004361060325760003560e01c806329c14766146037578063f613a68714604e575b600080fd5b60005b604051901515815260200160405180910390f35b6001603a56fea264697066735822122035b671defe3a9b9fa01d52ed281a5c3aaad367cb75bf8327f279bf30da435f6b64736f6c63430008110033",
  "devdoc": {
    "kind": "dev",
    "methods": {},
    "version": 1
  },
  "userdoc": {
    "kind": "user",
    "methods": {},
    "version": 1
  },
  "storageLayout": {
    "storage": [],
    "types": null
  }
}