{
  "address": "0x641D73b42a29cbB85724Ed07F73ec0CA83efA66A",
  "abi": [
    {
      "inputs": [],
      "name": "returnFalse",
      "outputs": [
        {
          "internalType": "bool",
          "name": "",
          "type": "bool"
        }
      ],
      "stateMutability": "pure",
      "type": "function"
    },
    {
      "inputs": [],
      "name": "returnTrue",
      "outputs": [
        {
          "internalType": "bool",
          "name": "",
          "type": "bool"
        }
      ],
      "stateMutability": "pure",
      "type": "function"
    }
  ],
  "transactionHash": "0xbdbec97f6649fa511ec71774cce1a7aa4de22078d1805132e5f311f0cbe7d5ee",
  "args": [],
  "numDeployments": 1,
  "solcInputHash": "0a9de02f283dfdd17b9b8a82d11e9c4d",
  "bytecode": "0x6080604052348015600f57600080fd5b50608a8061001e6000396000f3fe6080604052348015600f57600080fd5b506004361060325760003560e01c806329c14766146037578063f613a68714604e575b600080fd5b60005b604051901515815260200160405180910390f35b6001603a56fea2646970667358221220f656462f5e81eb86f213ca0533e677182cf6f435a4422322aa2ddaf07e066e1764736f6c63430008110033",
  "devdoc": {
    "kind": "dev",
    "methods": {},
    "version": 1
  },
  "userdoc": {
    "kind": "user",
    "methods": {},
    "version": 1
  },
  "storageLayout": {
    "storage": [],
    "types": null
  }
}